:020000020000FC
:040000001DC03EC021
:10003C000FE50DBF02E00EBF00E40BBF02E805BFE9
:10004C00D6D083D0B7D03BD0C8D07894EAD0FECFEE
:10005C00009100701CD047D01093002144D0009325
:10006C00002100E157D00093002054D000930020D1
:10007C00EFCF08950091001084D000930021B7D0E9
:10008C00189541434345535320434F444500EE24B8
:10009C00F02E06950695069506950A3020F0095027
:1000AC0020E4020F07C020E3020F04C0102F0F2D15
:1000BC000F70F3CFE39422E0E216C1F7089550D00D
:1000CC009BE0EEE8F0E056D025D000EC0093002049
:1000DC000895AF93BF93A8EEB4E000001197E9F731
:1000EC00BF91AF9108958F9388EC000000008A9522
:1000FC00E1F78F910895AF93BF938F93A0E8BAE186
:10010C0086E000001197E9F78A95D9F78F91BF9196
:10011C00AF910895AF93BF93A0E3B1E000001197A6
:10012C00E9F7BF91AF9108958F9389E000008A950C
:10013C00E9F78F910895AF93BF93A0E4BFE100005E
:10014C001197E9F7BF91AF910895F5DF08E300939C
:10015C000020EADF00930020E7DF0CE00093002092
:10016C00E3DF01E000930020D5DF06E000930020E0
:10017C00DBDF0895B8DF0591009300219A95D1F744
:10018C000895F02EF3FE09C0F2FE10C0F0FC00E35F
:10019C00F0FE0AE2F1FC03E20CC0F2FC04C0039591
:1001AC0010E4010F06C010E4010F03C00A9510E41F
:1001BC00010F089505E3D1E0C0E009930993099379
:1001CC000993099309930895D1E0C0E029903990DF
:1001DC0049905990699079900895D1E0C0E096E0EB
:1001EC0082DF0991009300219A95D1F7089500E0E0
:1001FC0000BD09E109B908E10AB906E800BD089596
:10020C0001E014D00ED0032F11D00BD0032F089582
:10021C00012F0CD006D0059109D003D01A95D9F72F
:10022C0008952BB12078E9F32CB108950CB90BB1DA
:06023C000032E9F3089511
:00000001FF
