:020000020000FC
:040000001DC04DC012
:10003C000FE50DBF02E00EBF00E40BBF02E805BFE9
:10004C00D0D09AD031E49EE0E2EBF0E0AAD079D0A7
:10005C0000EC0093002007D0FFCF9AE0E6ECF0E034
:10006C00A0D07894089595E0E0ECF0E09AD000915F
:10007C0000702ED04FD0109300214CD00093002153
:10008C0000E15FD0009300205CD000930020EFCF04
:10009C000895009100108CD00093002100E151D004
:1000AC0000930020189554686973206973206120AF
:1000BC00746573744144433A20004C617374206B33
:1000CC0065793A2054783A202A2052783A202A002E
:1000DC00EE24F02E06950695069506950A3020F02E
:1000EC00095020E4020F07C020E3020F04C0102FB8
:1000FC000F2D0F70F3CFE39422E0E216C1F70895B1
:10010C00AF93BF93A8EEB4E000001197E9F7BF914D
:10011C00AF9108958F9388EC000000008A95E1F769
:10012C008F910895AF93BF938F93A0E8BAE186E0C7
:10013C0000001197E9F78A95D9F78F91BF91AF918C
:10014C000895AF93BF93A0E3B1E000001197E9F7D6
:10015C00BF91AF9108958F9389E000008A95E9F7DC
:10016C008F910895AF93BF93A0E4BFE10000119766
:10017C00E9F7BF91AF910895F5DF08E300930020F4
:10018C00EADF00930020E7DF0CE000930020E3DFC0
:10019C0001E000930020D5DF06E000930020DBDFB8
:1001AC000895B8DF0591009300219A95D1F7089531
:1001BC00F02EF3FE09C0F2FE10C0F0FC00E3F0FEDE
:1001CC000AE2F1FC03E20CC0F2FC04C0039510E45B
:1001DC00010F06C010E4010F03C00A9510E4010FD3
:1001EC00089500E000BD09E109B908E10AB906E883
:1001FC0000BD089501E014D00ED0032F11D00BD008
:10020C00032F0895012F0CD006D0059109D003D0EF
:10021C001A95D9F708950BB10078E9F30CB108954C
:10022C000CB90BB10032E9F308959BE0E0EDF0E07E
:10023C00B8DF00E186DF00930020EDDF00930021A2
:10024C0047E000E17EDF009300204A95D1F7D2DF32
:10025C0000930021339546E004E173DF0093002006
:08026C004A95D9F7E6CF089589
:00000001FF
