:020000020000FC
:040000001DC037C028
:10003C000FE50DBF02E00EBF00E40BBF02E805BFE9
:10004C0084D0BFD099E0AEE3B0E094D000EC009344
:10005C00002017D001E007BB08BB7894BBD0273534
:10006C0009F452D0FBCF0F930091001055D0189586
:10007C00535044532056322E30436865636B73756E
:10008C006D20E4EFF1E0EE2EFF2EEE27FF27222766
:10009C003327442755270591200F351F451FEE1593
:1000AC00D1F7FF15C1F7042F17D071D000930021A1
:1000BC006ED010930021032F0FD069D00093002134
:1000CC0066D010930021022F07D061D0009300213D
:1000DC005ED0109300210895EE24F02E069506951F
:1000EC00069506950A3020F0095020E4020F07C04F
:1000FC0020E3020F04C0102F0F2D0F70F3CFE394E9
:10010C0022E0E216C1F7089500910070E5DF212F7F
:10011C0066D0202F64D00895F02EF3FE09C0F2FEB5
:10012C0010C0F0FC00E3F0FE0AE2F1FC03E20CC0AC
:10013C00F2FC04C0039510E4010F06C010E4010F9B
:10014C0003C00A9510E4010F089530D008E3009322
:10015C00002018D00093002015D00CE00093002054
:10016C0011D001E00093002017D006E0009300208E
:10017C0009D008950CD00591009300219A95D1F7E0
:10018C0006D00895BF93AF93A6E0B0E014C0BF9320
:10019C00AF93A8ECB0E00FC0BF93AF93A0E3B1E076
:1001AC000AC0BF93AF93AFE6B2E005C0BF93AF9365
:1001BC00A0E4BFE100C011970000E9F7AF91BF9137
:1001CC00089500E000BD09E109B908E10AB906E8A3
:1001DC0000BD08952BB12078E9F32CB108952CB90A
:0A01EC002BB12032E9F30895000062
:00000001FF
